{
  "contractName": "Faucet",
  "abi": [
    {
      "inputs": [
        {
          "internalType": "address",
          "name": "",
          "type": "address"
        }
      ],
      "name": "funders",
      "outputs": [
        {
          "internalType": "bool",
          "name": "",
          "type": "bool"
        }
      ],
      "stateMutability": "view",
      "type": "function"
    },
    {
      "inputs": [
        {
          "internalType": "uint256",
          "name": "",
          "type": "uint256"
        }
      ],
      "name": "lutFunders",
      "outputs": [
        {
          "internalType": "address",
          "name": "",
          "type": "address"
        }
      ],
      "stateMutability": "view",
      "type": "function"
    },
    {
      "inputs": [],
      "name": "numOfFunders",
      "outputs": [
        {
          "internalType": "uint256",
          "name": "",
          "type": "uint256"
        }
      ],
      "stateMutability": "view",
      "type": "function"
    },
    {
      "inputs": [],
      "name": "owner",
      "outputs": [
        {
          "internalType": "address",
          "name": "",
          "type": "address"
        }
      ],
      "stateMutability": "view",
      "type": "function"
    },
    {
      "stateMutability": "payable",
      "type": "receive"
    },
    {
      "inputs": [],
      "name": "addFunds",
      "outputs": [],
      "stateMutability": "payable",
      "type": "function"
    },
    {
      "inputs": [
        {
          "internalType": "uint256",
          "name": "withdrawAmount",
          "type": "uint256"
        }
      ],
      "name": "withdraw",
      "outputs": [],
      "stateMutability": "nonpayable",
      "type": "function"
    },
    {
      "inputs": [
        {
          "internalType": "uint256",
          "name": "index",
          "type": "uint256"
        }
      ],
      "name": "getFunderAtIndex",
      "outputs": [
        {
          "internalType": "address",
          "name": "",
          "type": "address"
        }
      ],
      "stateMutability": "view",
      "type": "function"
    },
    {
      "inputs": [],
      "name": "getAllFunders",
      "outputs": [
        {
          "internalType": "address[]",
          "name": "",
          "type": "address[]"
        }
      ],
      "stateMutability": "view",
      "type": "function"
    }
  ],
  "bytecode": "0x608060405234801561001057600080fd5b50336000806101000a81548173ffffffffffffffffffffffffffffffffffffffff021916908373ffffffffffffffffffffffffffffffffffffffff160217905550610a45806100606000396000f3fe60806040526004361061007f5760003560e01c80638da5cb5b1161004e5780638da5cb5b14610159578063a26759cb14610184578063af7f2c9b1461018e578063c218deca146101b957610086565b8063031b36771461008b5780631f8947ea146100c85780632e1a7d4d146101055780636fbbb55d1461012e57610086565b3661008657005b600080fd5b34801561009757600080fd5b506100b260048036038101906100ad9190610662565b6101f6565b6040516100bf91906107e9565b60405180910390f35b3480156100d457600080fd5b506100ef60048036038101906100ea919061068b565b610216565b6040516100fc91906107ac565b60405180910390f35b34801561011157600080fd5b5061012c6004803603810190610127919061068b565b610249565b005b34801561013a57600080fd5b5061014361036e565b60405161015091906107c7565b60405180910390f35b34801561016557600080fd5b5061016e6104b4565b60405161017b91906107ac565b60405180910390f35b61018c6104d8565b005b34801561019a57600080fd5b506101a36105f5565b6040516101b09190610844565b60405180910390f35b3480156101c557600080fd5b506101e060048036038101906101db919061068b565b6105fb565b6040516101ed91906107ac565b60405180910390f35b60016020528060005260406000206000915054906101000a900460ff1681565b60026020528060005260406000206000915054906101000a900473ffffffffffffffffffffffffffffffffffffffff1681565b8067016345785d8a0000811115610295576040517f08c379a000000000000000000000000000000000000000000000000000000000815260040161028c90610824565b60405180910390fd5b60008054906101000a900473ffffffffffffffffffffffffffffffffffffffff1673ffffffffffffffffffffffffffffffffffffffff163373ffffffffffffffffffffffffffffffffffffffff1614610323576040517f08c379a000000000000000000000000000000000000000000000000000000000815260040161031a90610804565b60405180910390fd5b3373ffffffffffffffffffffffffffffffffffffffff166108fc839081150290604051600060405180830381858888f19350505050158015610369573d6000803e3d6000fd5b505050565b6060600060035467ffffffffffffffff8111156103b4577f4e487b7100000000000000000000000000000000000000000000000000000000600052604160045260246000fd5b6040519080825280602002602001820160405280156103e25781602001602082028036833780820191505090505b50905060005b6003548110156104ac576002600082815260200190815260200160002060009054906101000a900473ffffffffffffffffffffffffffffffffffffffff1682828151811061045f577f4e487b7100000000000000000000000000000000000000000000000000000000600052603260045260246000fd5b602002602001019073ffffffffffffffffffffffffffffffffffffffff16908173ffffffffffffffffffffffffffffffffffffffff168152505080806104a4906108f1565b9150506103e8565b508091505090565b60008054906101000a900473ffffffffffffffffffffffffffffffffffffffff1681565b6000339050600160008273ffffffffffffffffffffffffffffffffffffffff1673ffffffffffffffffffffffffffffffffffffffff16815260200190815260200160002060009054906101000a900460ff166105f25760018060003373ffffffffffffffffffffffffffffffffffffffff1673ffffffffffffffffffffffffffffffffffffffff16815260200190815260200160002060006101000a81548160ff0219169083151502179055503360026000600354815260200190815260200160002060006101000a81548173ffffffffffffffffffffffffffffffffffffffff021916908373ffffffffffffffffffffffffffffffffffffffff160217905550600360008154809291906105ec906108f1565b91905055505b50565b60035481565b60006002600083815260200190815260200160002060009054906101000a900473ffffffffffffffffffffffffffffffffffffffff169050919050565b600081359050610647816109e1565b92915050565b60008135905061065c816109f8565b92915050565b60006020828403121561067457600080fd5b600061068284828501610638565b91505092915050565b60006020828403121561069d57600080fd5b60006106ab8482850161064d565b91505092915050565b60006106c083836106cc565b60208301905092915050565b6106d5816108a9565b82525050565b6106e4816108a9565b82525050565b60006106f58261086f565b6106ff8185610887565b935061070a8361085f565b8060005b8381101561073b57815161072288826106b4565b975061072d8361087a565b92505060018101905061070e565b5085935050505092915050565b610751816108bb565b82525050565b6000610764601e83610898565b915061076f82610969565b602082019050919050565b6000610787602383610898565b915061079282610992565b604082019050919050565b6107a6816108e7565b82525050565b60006020820190506107c160008301846106db565b92915050565b600060208201905081810360008301526107e181846106ea565b905092915050565b60006020820190506107fe6000830184610748565b92915050565b6000602082019050818103600083015261081d81610757565b9050919050565b6000602082019050818103600083015261083d8161077a565b9050919050565b6000602082019050610859600083018461079d565b92915050565b6000819050602082019050919050565b600081519050919050565b6000602082019050919050565b600082825260208201905092915050565b600082825260208201905092915050565b60006108b4826108c7565b9050919050565b60008115159050919050565b600073ffffffffffffffffffffffffffffffffffffffff82169050919050565b6000819050919050565b60006108fc826108e7565b91507fffffffffffffffffffffffffffffffffffffffffffffffffffffffffffffffff82141561092f5761092e61093a565b5b600182019050919050565b7f4e487b7100000000000000000000000000000000000000000000000000000000600052601160045260246000fd5b7f4f6e6c79206f776e65722063616e20776974686472617720616d6f756e740000600082015250565b7f43616e6e6f74207769746864726177206d6f7265207468616e20302e3120657460008201527f6865720000000000000000000000000000000000000000000000000000000000602082015250565b6109ea816108a9565b81146109f557600080fd5b50565b610a01816108e7565b8114610a0c57600080fd5b5056fea2646970667358221220cd8ee02c8f839c7e26d1577f7ae3a6110646752883d9aa825aa8c1ef7724de8264736f6c63430008040033",
  "immutableReferences": {},
  "source": "// SPDX-License-Identifier: MIT\r\npragma solidity <0.9.0;\r\n\r\nimport \"./Owned.sol\";\r\n\r\ncontract Faucet is Owned {\r\n    mapping(address => bool) public funders;\r\n    mapping(uint => address) public lutFunders;\r\n    uint public numOfFunders;\r\n\r\n    modifier limitWithdraw(uint withdrawAmount) {\r\n        require(\r\n            withdrawAmount <= 100000000000000000,\r\n            \"Cannot withdraw more than 0.1 ether\"\r\n        );\r\n        _;\r\n    }\r\n\r\n    receive() external payable {}\r\n\r\n    function addFunds() external payable {\r\n        address funder = msg.sender;\r\n        if (!funders[funder]) {\r\n            funders[msg.sender] = true;\r\n            lutFunders[numOfFunders] = msg.sender;\r\n            numOfFunders++;\r\n        }\r\n    }\r\n\r\n    function withdraw(\r\n        uint withdrawAmount\r\n    ) external limitWithdraw(withdrawAmount) onlyOwner {\r\n        payable(msg.sender).transfer(withdrawAmount);\r\n    }\r\n\r\n    function getFunderAtIndex(uint index) external view returns (address) {\r\n        return lutFunders[index];\r\n    }\r\n\r\n    function getAllFunders() external view returns (address[] memory) {\r\n        address[] memory _funders = new address[](numOfFunders);\r\n        for (uint i = 0; i < numOfFunders; i++) {\r\n            _funders[i] = lutFunders[i]; //since array starts from\r\n        }\r\n        return (_funders);\r\n    }\r\n}\r\n\r\n// const instance= await Faucet.deployed()\r\n\r\n// instance.addFunds({value:\"2000000000000000000\",from:accounts[2]})\r\n// instance.getFunderAtIndex()\r\n// instance.getAllFunders()\r\n// instance.withdraw(\"100000000000000000\",{from:accounts[1]})\r\n\r\n//  if(contributors[msg.sender]==0){\r\n//             noOfContributors++;\r\n//         }\r\n//         contributors[msg.sender]+=msg.value;\r\n//         raisedAmount+=msg.value;\r\n",
  "sourcePath": "D:\\Projects\\NextJsProjects-solidity\\faucet\\contracts\\FaucetContract.sol",
  "compiler": {
    "name": "solc",
    "version": "0.8.4+commit.c7e474f2.Emscripten.clang"
  },
  "schemaVersion": "3.4.14",
  "updatedAt": "2023-07-09T11:30:30.270Z",
  "devdoc": {
    "kind": "dev",
    "methods": {},
    "version": 1
  },
  "userdoc": {
    "kind": "user",
    "methods": {},
    "version": 1
  }
}